:020000040800F2
:10000000A8090020490100086B16000863160008C3
:1000100067160008B10E0008E5290008000000007E
:10002000000000000000000000000000551800085B
:100030006110000800000000DD160008411B0008E8
:100040006301000863010008630100086301000800
:10005000630100086301000865100008991000089A
:1000600063010008630100086301000863010008E0
:1000700063010008630100086301000863010008D0
:1000800063010008630100086301000863010008C0
:1000900063010008630100086301000815110008EE
:1000A00063010008630100086301000863010008A0
:1000B000A51B00084D1C000863010008630100082F
:1000C0006301000863010008630100086301000880
:1000D00063010008152500089D250008630100083C
:1000E0006301000863010008630100086301000860
:1000F0006301000863010008630100086301000850
:100100006301000863010008F11D00086301000895
:10011000630100086301000863010008630100082F
:10012000630100086301000863010008630100081F
:10013000DFF810D000F0F8FC00480047C139000893
:10014000AFF30080A8090020064880470648004712
:10015000FEE7FEE7FEE7FEE7FEE7FEE7FEE7FEE777
:10016000FEE7FEE7451B00083101000840EA0103F5
:100170009B0703D009E008C9121F08C0042AFAD25D
:1001800003E011F8013B00F8013B521EF9D2704721
:10019000D2B201E000F8012B491EFBD270470022C9
:1001A000F6E710B513460A4604461946FFF7F0FF76
:1001B000204610BD421C10F8011B0029FBD1801AFB
:1001C000704730B505460020034600E05B1C9342B3
:1001D00005D2EC5CC85C201A01D1002CF6D130BDF0
:1001E0000FB400B58DB010A909900B9000914FF09D
:1001F000FF300A9000200C900548069005480790B3
:100200006A4609A80F9900F09DFB0DB05DF814FB3C
:10021000610900087F0900082DE9FF5F1D464FF0C6
:10022000FF3BD5E9014691465F464FF00008A969BA
:100230007F1C01988847296A824688470028F6D1A2
:10024000BAF1FF3F0CD024F4C064002E19DD600623
:1002500014D5BAF12B0F09D0BAF12D0F0ED103E04E
:10026000584604B0BDE8F09F44F48064A9697F1C3F
:1002700001988847761E8246002E02DDBAF1300FC3
:1002800003D0B9F1000F26D032E0A969761E44F4FC
:1002900000747F1C019888478246002E05DDBAF164
:1002A000780F06D0BAF1580F03D0B9F1000F10D073
:1002B0001EE0B9F1000F02D0B9F1100F18D1A969F1
:1002C000761E24F400747F1C019888478246102013
:1002D00002E0082000E00A20814609E008FB090846
:1002E000A969761E44F400747F1C019888478246F1
:1002F000002E05DD4946504600F010FB0028EDDADF
:10030000E96901988847A00502D46FF00100A8E7C9
:10031000E00725D1600613D5600502D5C8F10000BD
:1003200000E0404629680A1D2A600968220501D5B7
:10033000087015E0220701D5088011E008600FE081
:100340002868011D29600068210502D580F8008019
:1003500006E0210702D5A0F8008001E0C0F8008087
:1003600038467EE780EA010210B502F00043400003
:1003700022D04A001FD0010E01EB1261C0F35600DB
:10038000C2F3560240F4000042F40002A0FB022037
:1003900000047F39140400D0401C50EA124001D4FC
:1003A0004000491EC2B20C0604EBD010401C4008AD
:1003B000802A02D003E0002010BD20F001000029B7
:1003C00000DA0020184310BD2DE9FE4F804681EA77
:1003D0000300C00F0C46009021F0004123F00045BF
:1003E000B8EB0200A94105D24046214690461C4682
:1003F0000B46024623F00040104347D0270DC7F3B9
:100400000A00C3F30A510290401A019040286BDAA7
:10041000C3F3130040F4801B0098924620B10023E0
:10042000D2EB030A63EB0B0B01985946C0F1400273
:10043000504600F042FA06460D4650465946019A8B
:1004400000F05AFA10EB08006141002487EA1152CB
:1004500084EAE7731A4340D0009A62B3019A012AF2
:100460004FEA075215DC001B61EB02014FF000421E
:1004700002EA0752CDE90042001C41F580113246E4
:100480002B4600F0D3FA03B0BDE8F08F404621467A
:10049000F9E7001B61EB0201001C41F58013001815
:1004A0005B412018A2F5001747EB030140EAD57025
:1004B000B6196D4111E06D084FEA360645EAC07580
:1004C0004FEA0752001B61EB0201001C41F580114D
:1004D00049084FEA30000019514132462B4603B01B
:1004E000BDE8F04F00F093BA0098012240000023CD
:1004F000D0EB020263EBE073009821464FEAE07410
:10050000B8EB000061EB0401E9E783F000435BE72F
:1005100081F0004158E72DE9FE4F81EA030404F021
:10052000004421F0004100944FF0000B23F0004301
:1005300050EA01045ED052EA03045BD0C3F30A54CC
:10054000C1F30A552C44A4F2F3340194A0FB0254E5
:10055000C1F3130141F48011C3F3130343F4801377
:1005600001FB024400FB034E840A970A44EA8154CB
:1005700047EA8357A4FB076802958D0A05FB0785A8
:100580004FEA932C04FB0C542705029D4FEA0658B2
:1005900047EA1637B5EB08056EEB070C870E920E8F
:1005A00047EA811742EA8312A7FB0201B6EB0B016F
:1005B00064EB00042B0D43EA0C335E1844EB1C5033
:1005C000DA465146E7FB0201C5F313044FEA0B3349
:1005D00043EA14534FEA0432019C43EA0603A4F1B0
:1005E0000C040294009CCDE900B400F01FFA03B0A3
:1005F000BDE8F08F00200146F9E72DE9F04D81EAD2
:10060000030404F0004B21F0004514464FF0000AAB
:1006100023F0004150EA050220D054EA01021DD027
:10062000C5F30A570246C5F31303C1F31300C1F320
:100630000A5640F4801543F48013A7EB0608101BFC
:10064000D64608F2FD3873EB050002D308F1010825
:1006500001E092185B41B8F1000F03DA0020014677
:10066000BDE8F08D00204FF48011064684460EE070
:10067000171B73EB050705D3121B63EB050306433A
:100680004CEA010C49084FEA300092185B4150EAED
:100690000107EDD152EA030012D082EA040083EA96
:1006A0000501084305D0101BAB4106D201220023EF
:1006B00006E000224FF0004302E06FF00102531009
:1006C0001AEB06004CEB085110EB0A0041EB0B0152
:1006D000BDE8F04D00F09BB996230022114600F0D2
:1006E00068B90EB5C10F80EAE0700844CA0700215E
:1006F00040F233438DE80E000A460B4600F096F9AF
:1007000003B000BD00F0004220F00040C10DC0F376
:10071000160040F400007F2901DA00207047962976
:1007200003DCC1F19601C84001E096398840002AF7
:10073000F4D04042704720F00040C10DC0F31600D5
:1007400040F400007F2901DA00207047962903DC7D
:10075000C1F19601C840704796398840704770B51E
:10076000C1F30A5201F000450024C1F3130140F225
:10077000FF3341F480119A4201DA002070BD40F24B
:1007800033439A42A2F2334203DC524200F0A4F80F
:1007900000E090402C43F1D0404270BDC1F30A52BA
:1007A00010B5C1F3130140F2FF3341F480119A42B6
:1007B00001DA002010BD40F233439A42A2F23342E4
:1007C00003DC524200F088F810BD904010BD00F0EC
:1007D000004230F000400AD0C10D01F56071C0F355
:1007E000160042EA0151C208400711437047002039
:1007F0000146704701F0004330B421F0004150EA57
:10080000010206D00A0DA2F56072C1F31301002A9D
:1008100002DC30BC00207047440F44EAC104C10030
:10082000E01830BC00EBC25000F0BAB830B50B464F
:10083000014600202022012409E021FA02F59D4210
:1008400005D303FA02F5491B04FA02F52844151EE4
:10085000A2F10102F1DC30BD2DE9F05F0546002078
:1008600092469B4688460646814640241BE0284621
:1008700041464746224600F02FF853465A46C01AD2
:10088000914110D311461846224600F016F82D1A51
:1008900067EB01084F4622460120002100F00DF8C9
:1008A00017EB00094E41201EA4F10104DFDC48468D
:1008B00031462A464346BDE8F09F202A04DB203A11
:1008C00000FA02F1002070479140C2F1200320FAA3
:1008D00003F3194390407047202A04DB203A21FAA1
:1008E00002F00021704721FA02F3D040C2F1200249
:1008F0009140084319467047202A06DBCB17203A5F
:1009000041FA02F043EAE07306E041FA02F3D04014
:10091000C2F1200291400843194670473A2800D29C
:10092000303820F02002412A01D3A2F1370088425A
:1009300001D34FF0FF307047026811441378016013
:1009400018467047D1600449516104491162002181
:100950001161114600F000B9390900084D0B00087B
:10096000426842B1016811F8013B23B1521EC0E94F
:100970000012184670470121C160881E7047426806
:100980005AB1C368016843B983688B4205D0491ED8
:10099000521CC0E90012002070474FF0FF30704732
:1009A0000029A8BF7047401C490008BF20F0010083
:1009B000704710B4B0FA80FC00FA0CF050EA010461
:1009C00004BF10BC704749B1CCF1200421FA04F4F3
:1009D00011FA0CF118BF012121430843A3EB0C01CC
:1009E000CB1D4FEA00614FEA102042BF002010BC2F
:1009F000704700EBC35010440029A4BF10BC7047DF
:100A0000401C490008BF20F0010010BC704710B521
:100A1000141E73F1000408DA401C41F10001921821
:100A20005B411A4301D120F0010010BD2DE9F04DCA
:100A300092469B4611B1B1FA81F202E0B0FA80F21F
:100A400020329046FFF739FF04460F4640EA0A007D
:100A500041EA0B0153465A46084313D0114653EA64
:100A6000010019D0C8F140025046FFF735FF054696
:100A70000E46504659464246FFF71FFF084305D031
:100A8000012004E020463946BDE8F08D00200543F2
:100A900046EAE0762C4337430A986305E40AA0EB64
:100AA00008000022FD0A44EA47540A3002D500201B
:100AB0000146E9E7010510196941DDE9084500191A
:100AC0006941BDE8F04DA2E7C1F30A52C1F3130139
:100AD00040F2FF3341F480119A4202DA00200146CD
:100AE000704740F233439A42A2F2334202DC524250
:100AF000FFF7F2BEFFF7E1BE30B5041E71F100044E
:100B000004DB4FF00044404264EB0101141E73F11A
:100B1000000405DB1C464FF00043524263EB040324
:100B2000994208BF904230BD064C074D06E0E06890
:100B300040F0010394E8070098471034AC42F6D324
:100B4000FFF7FAFA3443000854430008C0B24FF4E8
:100B5000F05100F099B900002DE9F34F8BB04FF040
:100B6000000801F10C000C464FF0010B46460DF158
:100B7000080A01906269012101989047051E2DD055
:100B8000252D2CD0216A8847C0B1626901210198C6
:100B90009047216A88470028F7D1411E6269019871
:100BA000904700E0761CA1690B988847216A884726
:100BB0000028F7D1E1690B988847DBE7A1690B981A
:100BC00088470746A84201D1761CD3E7E1690B9814
:100BD00088477F1C02D1B8F1000F6FD047E1002792
:100BE00062693D463946019890472A2804D16269D6
:100BF0000121019890470125DFF88892626901215F
:100C000001989047A0F130010A290AD24F45E5DC4E
:100C100007EB870100EB4107303FDFD445F01005BB
:100C2000ECE7E90601D46FF000476C280AD04C28A5
:100C300014D0682815D06A280DD074281CD07A28C2
:100C40001AD01DE062690121019890476C2802D0FA
:100C500045F0040514E045F002050DE045F02005DF
:100C60000AE06269012101989047682802D045F0A6
:100C7000080505E045F40065626901210198904787
:100C8000C4E9015765283DD019DC58287AD00CDC1E
:100C9000452837D004DC252826D0412831D131E041
:100CA00046282FD047282CD12CE05B2877D061280C
:100CB00028D063287CD0642823D15AE0D1E06F2863
:100CC00048D008DC66281DD067281BD0692821D0B1
:100CD0006E2816D127E0702845D0732868D0752873
:100CE00047D078280DD14DE0A1690B98884705467B
:100CF00025283FF469AFE1690B9888476D1C3FF4E4
:100D00006AAFB4E023466A466FF001000B99AFF377
:100D100000809FE045F040006060A80723464FF048
:100D2000000236D43EE0E8077FF447AF2068011D9B
:100D300021600068290501D506701BE7290701D548
:100D4000068017E7A90703D5F117C0E9006111E78D
:100D500006600FE745F040006060A80723464FF0AB
:100D6000080216D41EE040F60E0125EA010060607C
:100D700016E045F040006060A80723464FF00A02E5
:100D800007D40FE045F040006060A80708D523466F
:100D900010226FF001000B99AFF300805AE007E0DA
:100DA000234610226FF001000B99FFF735FA51E04E
:100DB0004FF000094F464B46632802D05B2807D00E
:100DC00041E02079C00601D40120A06001273AE06B
:100DD00062690121019890475E2805D14FF0010911
:100DE0006269494601989047216939B900210A464C
:100DF000534643F82120491C0829FADBB0B3216986
:100E000069B9C11700EBD16253110AEB830122F0DB
:100E10001F02821A01200B68904003430B60626935
:100E20000121019890475D28E8D1B9F1000F09D060
:100E30000020514651F82020D24341F82020401C88
:100E40000828F7DB02AB224600976FF001000B99F0
:100E5000AFF3008000280CDA401C08D1BBF1000F72
:100E600005D04FF0FF300DB0BDE8F08FFFE74046F2
:100E7000F9E7E90701D108F1010806444FF0000B3A
:100E800078E60000CCCCCC0C7F2801D9002208E009
:100E9000064A02EB5002C007127800D1120902F094
:100EA0000F0201209040084070470000F442000803
:100EB00000BFFEE721B1026842F00102026004E0D7
:100EC00002684FF6FE731A400260704701684FF6E1
:100ED000FE72114001600021016041608160C160CB
:100EE0004B49884208D14A490839496841F00F0105
:100EF000474A083A51608AE045491431884208D18E
:100F000043490839496841F0F001414A083A5160C3
:100F10007DE03F492831884208D13D490839496878
:100F200041F470613A4A083A516070E038493C3106
:100F3000884208D136490839496841F47041344A39
:100F4000083A516063E032495031884208D1304953
:100F50000839496841F470212D4A083A516056E039
:100F60002B496431884208D129490839496841F43C
:100F70007001274A083A516049E025497831884292
:100F800008D123490839496841F07061204A083A7C
:100F900051603CE01F49884206D1011F096841F0B9
:100FA0000F01021F116032E01A491431884208D142
:100FB0001849091F096841F0F001164A121F116013
:100FC00025E014492831884208D11249091F0968CF
:100FD00041F470610F4A121F116018E00D493C3155
:100FE000884208D10B49091F096841F47041094A38
:100FF000121F11600BE007495031884207D10549A3
:10100000091F096841F47021024A121F11607047DC
:1010100008000240080402400146486880B2704758
:1010200010B50022026847F6F0739A430C6A8B6889
:1010300023430C6923434C6923438C692343CC69C4
:1010400023434C6A23438C6A23431A430260CB68D0
:1010500043600B6883604B68C36010BD416070479C
:101060007047000010B50A2002F00AFA0121084872
:1010700000F079F9012807D10648006808B9012075
:1010800000E0002003490860012000F05DF810BD79
:1010900000180140888122422DE9F0410A2002F027
:1010A00015FA022000F056F850B30021154801F05F
:1010B00079F90121134800F0C9FF00BF022112484D
:1010C00000F051F90028F9D100210E4800F0BEFFD0
:1010D0000C4800F0D9FF00EB800000EB001044004A
:1010E0002046FFF7FEFA05460022084BFFF785FA77
:1010F0000746FFF77FFB06490860022000F024F84E
:10110000BDE8F0810004004000100140000069408B
:10111000B400002010B50A2002F0B2F920210848DE
:1011200000F021F938B90748006808B9012000E04B
:10113000002004490860202000F006F810BD0000DF
:1011400000100140A00121420149086070470000E1
:1011500014040140014600200022074B1B6803EAEB
:101160000102054B14331B680B4013B10AB1012077
:1011700000E00020704700000004014000212349E6
:101180008279002A3AD00A46126803689A430B46CD
:101190001A600A1D126803689A430B1D1A600279CF
:1011A00011440A6803681A430A60184A0832126830
:1011B00003689A43154B08331A601A1D12680368B6
:1011C0009A43124B0C331A604279102A0ED11A1F1F
:1011D000126803681A430D4B08331A601A1D12680F
:1011E00003681A43094B0C331A600DE00749427932
:1011F00011440A6803681A430A6005E00279114441
:101200000A6803689A430A607047000000040140BE
:1012100030B500228B071C0F0F2303FA04F20B4B8F
:101220008C1053F824309343084C8D1044F825302B
:1012300023468C1053F824308C07240F00FA04F452
:101240002343024C8D1044F8253030BD0800014086
:101250002DE9F0410246002500260020002300244D
:10126000002791F803C00CF00F0591F803C00CF0B3
:10127000100CBCF1000F03D091F802C04CEA050538
:1012800091F800C0BCF1000F31D0146800202BE0B1
:101290004FF0010C0CFA00F3B1F800C00CEA0306A1
:1012A0009E4220D183004FF00F0C0CFA03F7BC4391
:1012B00005FA03FC4CEA040491F803C0BCF1280FC2
:1012C00006D14FF0010C0CFA00FCC2F814C00AE081
:1012D00091F803C0BCF1480F05D14FF0010C0CFA96
:1012E00000FCC2F810C0401C0828D1D31460B1F82B
:1012F00000C0BCF1FF0F34DD546800202EE000F187
:10130000080C4FF0010808FA0CF3B1F800C00CEA21
:1013100003069E4221D183004FF00F0C0CFA03F715
:10132000BC4305FA03FC4CEA040491F803C0BCF189
:10133000280F05D100F1080C08FA0CF8C2F8148047
:1013400091F803C0BCF1480F07D100F1080C4FF031
:10135000010808FA0CF8C2F81080401C0828CED307
:101360005460BDE8F0810246002093680B400BB149
:10137000012000E000207047416170470161704723
:1013800070B504460D460A21462000F052F80A21A5
:10139000462000F084F80A21462000F019F80A21BE
:1013A000462000F089F870BD70B504460D460A214C
:1013B000462000F01FF80A21462000F08FF80A218D
:1013C000462000F024F80A21462000F056F870BDAF
:1013D0002DE9F04104460D46C4F1640046B2704266
:1013E00047B23146012000F067FAA8B202F048F88F
:1013F000BDE8F08170B504460D46604246B2314604
:10140000012000F059FAA8B202F03AF870BD2DE9B7
:10141000F04104460D46C4F1640046B2704247B242
:101420003146012000F0A6FAA8B202F029F8BDE882
:10143000F08170B504460D46604246B23146012047
:1014400000F098FAA8B202F01BF870BD70B504461F
:101450000D460021012000F02FFA2146002000F067
:101460002BFA0021012000F085FA2146002000F02F
:1014700081FAA8B202F004F870BD2DE9F0410446EB
:101480000D46C4F1640046B2704247B239460020AE
:1014900000F012FAA8B201F0F3FFBDE8F08170B5D8
:1014A00004460D46604246B22146002000F004FA90
:1014B000A8B201F0E5FF70BD2DE9F04104460D46EC
:1014C000C4F1640046B2704247B23946002000F0D1
:1014D00051FAA8B201F0D4FFBDE8F08170B504461E
:1014E0000D46604246B22146002000F043FAA8B201
:1014F00001F0C6FF70BD70B504460D46604246B2AD
:101500003146012000F0D8F90021084600F0D4F956
:101510003146012000F02EFA0021084600F02AFA98
:10152000A8B201F0ADFF70BD70B504460D46C4F120
:10153000640046B22146002000F0BEF93146012089
:1015400000F0BAF92146002000F014FA31460120DB
:1015500000F010FAA8B201F093FF70BD2DE9F04140
:1015600004460D46C4F1640046B2604247B2704280
:1015700041B2002000F0A0F93946012000F09CF9AA
:10158000704241B2002000F0F5F93946012000F028
:10159000F1F9A8B201F074FFBDE8F0812DE9F04146
:1015A00004460D46C4F1640046B2704247B231466B
:1015B000012000F081F93946002000F07DF9314624
:1015C000012000F0D7F93946002000F0D3F9A8B285
:1015D00001F056FFBDE8F08110B50446002101205E
:1015E00000F06AF90021084600F066F94FF48041E6
:1015F0000E48FFF7C1FE4FF480510C48FFF7BCFEC8
:101600000021012000F0B6F90021084600F0B2F9EF
:101610004FF400410548FFF7AFFE4FF40051034877
:10162000FFF7AAFEA0B201F02BFF10BD000C014095
:1016300070B504460D46604246B23146012000F0C6
:101640003BF92146002000F037F93146012000F037
:1016500091F92146002000F08DF9A8B201F010FFA9
:1016600070BD00BFFEE700BFFEE7704770B5002108
:1016700000230F22C47804B3154C246804F4E064FA
:10168000C4F5E064210AC1F10403CA40447804FAB5
:1016900003F184781440214309010E4C0678A155CA
:1016A000047804F01F050124AC4005786D11AD00ED
:1016B00005F1E025C5F8004109E0047804F01F05B4
:1016C0000124AC40044D0678761145F8264070BDE3
:1016D0000CED00E000E400E080E100E07047000075
:1016E00029B1064A52690243044B5A6104E0034A95
:1016F00052698243014B5A6170470000001002405A
:1017000029B1064AD2690243044BDA6104E0034A74
:10171000D2698243014BDA61704700000010024039
:1017200029B1064A12690243044B1A6104E0034AD4
:1017300012698243014B1A61704700000010024099
:1017400029B1064A92690243044B9A6104E0034AB4
:1017500092698243014B9A61704700000010024079
:1017600029B1064AD2680243044BDA6004E0034A16
:10177000D2688243014BDA607047000000100240DB
:1017800030B500210022002400232D4D6D6805F0A6
:101790000C0121B1042905D0082923D105E0294DE8
:1017A000056022E0274D05601FE0254D6D6805F4BA
:1017B0007012234D6D6805F48034022505EB9242CA
:1017C0001CB9214D554305600BE01D4D6D6805F4B6
:1017D00000351DB11C4D5543056002E0194D5543C0
:1017E000056002E0174D056000BF00BF144D6D6835
:1017F00005F0F0010909154D6B5C0568DD40456099
:101800000F4D6D6805F4E061090A104D6B5C456889
:10181000DD4085600A4D6D6805F46051C90A0B4DC5
:101820006B5C4568DD40C560054D6D6805F4404161
:10183000890B074D6B5CC568B5FBF3F5056130BDE1
:101840000010024000127A0000093D0080000020D4
:1018500090000020704700002DE9F14F82B00298FF
:10186000FEF7B5FF804600220F4BFEF754FE0646FA
:1018700000220E4BFEF7C1FE044600220C4BFEF781
:10188000A3FD8246FEF78AFF80B20190FEF724FF97
:1018900002900298FEF74FFF84B22146054800F0FF
:1018A00078FDBDE8FE8F00000000494000002240A6
:1018B00000206F40000C00402DE9FC4782460C469A
:1018C000642C00DB642414F1640F01DC6FF063040A
:1018D0002046FEF706FF21F0004107460022214B7B
:1018E000FEF719FE054600221F4BFEF711FECDE95B
:1018F0000001FEF734FF0FFA80F9BAF1000F03D0B0
:10190000BAF1010F2AD114E01FFA89F1174800F04B
:1019100044FD002C05DD4FF480411548FFF72CFDF8
:1019200006E0002C04DA4FF480411148FFF726FD51
:1019300014E01FFA89F10D4800F02BFD002C05DDA5
:101940004FF480510A48FFF719FD06E0002C04DA35
:101950004FF480510648FFF70FFD00BF00BFBDE800
:10196000FC870000000052400021BC4000080040FD
:10197000000C01402DE9FC4782460C46642C00DB3C
:10198000642414F1640F01DC6FF063042046FEF759
:10199000A8FE21F0004107460022214BFEF7BBFDC7
:1019A000054600221F4BFEF7B3FDCDE90001FEF70F
:1019B000D6FE0FFA80F9BAF1000F03D0BAF1010F89
:1019C0002AD114E01FFA89F1174800F0E8FC002C36
:1019D00005DD4FF400411548FFF7CEFC06E0002C72
:1019E00004DA4FF400411148FFF7C8FC14E01FFA75
:1019F00089F10D4800F0CFFC002C05DD4FF40051BB
:101A00000A48FFF7BBFC06E0002C04DA4FF4005153
:101A10000648FFF7B1FC00BF00BFBDE8FC8700002F
:101A2000000052400021BC4000080040000C014072
:101A300010B500F001F810BD0CB500200190009029
:101A40003348006840F480303149086000BF3048B6
:101A5000006800F4003000900198401C019000984C
:101A600018B90198B0F5A06FF1D12948006800F4C9
:101A7000003010B10120009001E00020009000989B
:101A8000012843D12348006840F010002149086034
:101A90000846006820F0030008600846006840F02F
:101AA000020008601A4840681949486008464068C2
:101AB00048600846406840F48060486008464068D6
:101AC00020F47C1048600846406840F4E810486004
:101AD0000846006840F08070086000BF0C4800684D
:101AE00000F000700028F9D00948406820F0030099
:101AF000074948600846406840F00200486000BF5F
:101B00000348406800F00C000828F9D10CBD000023
:101B10000010024000200240042808D14FF0E021CC
:101B2000096941F004014FF0E022116107E04FF034
:101B3000E021096921F004014FF0E02211617047B2
:101B40007047000010B51348006840F001001149CB
:101B5000086008464068104908400E494860084639
:101B600000680E4908400B4908600846006820F4E8
:101B7000802008600846406820F4FE0048604FF46A
:101B80001F008860FFF754FF4FF0006004490860B1
:101B900010BD0000001002400000FFF8FFFFF6FE3D
:101BA00008ED00E010B50121880700F070FA60B17F
:101BB0000648008840F40040044908800121880755
:101BC00000F041FA002000F02DF810BDC200002006
:101BD0007FB505460C4601210846FFF791FDADF89B
:101BE0000450ADF800400020ADF80600ADF802004A
:101BF00069464FF0804000F0D7FB01221146900764
:101C000000F056FA1C208DF80C0001208DF80D0014
:101C100002208DF80E0001208DF80F0003A8FFF7B9
:101C200025FD7FBD10B504464CB100214FF080402A
:101C300000F0B8FB0121880700F008FA04E0002159
:101C40004FF0804000F002FA10BD000010B50121F5
:101C5000044800F01CFA18B10121024800F0F3F921
:101C600010BD00000004004030B589B005460C46A8
:101C700001210420FFF744FD01210820FFF760FD4A
:101C80004FF48050ADF8040003208DF806001020BA
:101C90008DF8070001A95448FFF7DAFA4020ADF8A3
:101CA000040003208DF8060018208DF8070001A914
:101CB0004D48FFF7CDFA4FF48040ADF80400032003
:101CC0008DF8060010208DF8070001A94648FFF79F
:101CD000BFFA4FF48070ADF8040003208DF80600C1
:101CE00018208DF8070001A93F48FFF7B1FA4FF41B
:101CF0000050ADF8040003208DF8060010208DF888
:101D0000070001A93848FFF7A3FA8020ADF80400C6
:101D100003208DF8060018208DF8070001A932482D
:101D2000FFF796FA4FF40040ADF8040003208DF859
:101D3000060010208DF8070001A92B48FFF788FA4C
:101D40004FF40070ADF8040003208DF80600182051
:101D50008DF8070001A92448FFF77AFAADF81C5066
:101D6000ADF818400020ADF81E00ADF81A0006A925
:101D70001E4800F019FB7020ADF808000120ADF8F6
:101D80000A000020ADF80E00ADF8100002A91748B7
:101D900000F05AFA02A9154800F094F902A9134874
:101DA00000F0E6F902A9114800F0A8FA01210F4855
:101DB00000F058F908210D4800F096FA08210B4868
:101DC00000F0CCF90821094800F031FA0821074851
:101DD00000F0D2FA0121054800F026F9012103485C
:101DE00000F034F909B030BD000C0140000800409B
:101DF00010B501215E4800F04AF9F8B15D4800785D
:101E000000F08000D0B15B48007820F01000594904
:101E100008700846007800F00F0020B908460078E6
:101E200040F0400008705348007800F00F000E2882
:101E300005DA50480078401C4E4908700AE04D48C9
:101E4000007820F080004B4908700846007800F0C8
:101E5000F00008700421464800F019F9002810D05D
:101E60004548006870B10221414800F0D3F90021D3
:101E70003F4800F097FA3F48007840F010003D4995
:101E8000087070E03A4800F0FCF83C4908800021F6
:101E9000374800F0BFF93748007800F010000028FC
:101EA0005BD03448007800F08000E8B33348008805
:101EB000B0F5967F0DDD31480088B0F5487F08DA2F
:101EC0002F48006840002E490860084600680860F6
:101ED00043E02A480088B0F5AF6F0FDD274800883F
:101EE000B0F5E16F0ADA264800684000244908602E
:101EF0000846006840F0010008602EE01F48008896
:101F000040F69801884228DD1C48008840F62821C8
:101F1000884222DA1B480078401C1A49087015488C
:101F2000007800F0F00000E002E01249087014E0D0
:101F30001248008841F2680188420EDD0F4800888F
:101F400041F25C21884208DA0A48007840F08000BB
:101F50000849087000200B4908700648007820F0F6
:101F60001000044908700521014800F069F810BD0F
:101F7000000C0040B800002004012142BA000020FB
:101F8000BC000020C000002030B589B005460C46DA
:101F900001210820FFF7B4FB01210420FFF7D0FB4B
:101FA0000120ADF8200018208DF8230003208DF8C3
:101FB000220008A91A48FFF74BF9ADF81850ADF800
:101FC00014400020ADF81A00ADF8160005A9154818
:101FD00000F0EAF96020ADF804000120ADF8060039
:101FE0000020ADF80A00ADF80C0001A90D4800F082
:101FF00069F801210B4800F035F80821094800F084
:10200000ADF801A9074800F0B3F80121054800F038
:102010000BF80121034800F019F809B030BD0000A9
:1020200000080140000C004021B1028842F080020B
:10203000028004E002884FF67F731A4002807047E6
:10204000CA4302827047CA430282704721B10288A4
:1020500042F00102028004E002884FF6FE731A404B
:102060000280704731B1B0F8442042F40042A0F839
:10207000442005E0B0F84420C2F30E02A0F844204A
:1020800070470146088F70470146888C704730B50D
:102090000246002000230024158A05EA01039589E1
:1020A00005EA010413B10CB1012000E0002030BDAD
:1020B0001AB183890B43838102E083898B43838137
:1020C0007047000070B5002400220023058C4FF6F5
:1020D000FE7635400584028C8388048B4FF68F751D
:1020E0002C40B51E2C400D882C43751E2A400D89AE
:1020F0002A434D882A43144DA8420BD0134DA842C1
:1021000008D0134DA84205D0124DA84202D0124D5E
:10211000A84213D14FF6F7752A404D892A434FF64E
:10212000FB752A408D882A434FF6FF652B404FF6FA
:10213000FF552B408D892B43CD892B43838004830E
:10214000CD888586028470BD002C0140003401409A
:102150000040014000440140004801400A4600217F
:10216000018B4FF6F773194011430183704700004C
:1021700070B5002400220023058C4FF6EF76354021
:102180000584028C8388048B48F6FF752C404FF63B
:10219000FF452C400D884FF6FF7606EA05252C43B7
:1021A0004FF6DF752A400D8906EA05152A434D884A
:1021B00006EA05152A43154DA84202D0144DA8423F
:1021C0001DD14FF67F752A404D894FF6FF7606EAFE
:1021D00005152A434FF6BF752A408D8806EA051576
:1021E0002A434FF6FF352B404FF2FF752B408D8968
:1021F00006EA85052B43CD8906EA85052B438380B6
:102200000483CD880587028470BD0000002C014046
:10221000003401400A460021018C4FF6DF7319405B
:102220004FF6FF7303EA02131943018470470A460D
:102230000021018B4FF2FF7319404FF6FF7303EA41
:10224000022319430183704770B500240022002344
:10225000058C4FF6FF6635400584028C8388848B9D
:102260004FF68F752C404FF6FC752C400D882C4393
:102270004FF6FF552A400D894FF6FF7606EA0525F1
:102280002A434D8806EA05252A43154DA84202D067
:10229000144DA8421DD14FF2FF752A404D894FF6CB
:1022A000FF7606EA05252A434FF6FF352A408D883A
:1022B00006EA05252A434EF6FF752B404DF6FF75BD
:1022C0002B408D8906EA05152B43CD8906EA0515B5
:1022D0002B4383808483CD888587028470BD000072
:1022E000002C0140003401400A460021818B4FF64A
:1022F000F7731940114381837047000070B50022C5
:1023000000230024058C4EF6FF7635400584038CAF
:102310008488828B48F6FF752A404FF6FF452A4095
:102320000D884FF6FF7606EA05252A434DF6FF7520
:102330002B400D8906EA05352B434D8806EA053505
:102340002B430B4DA84202D00A4DA84208D14BF6B0
:10235000FF752C408D894FF6FF7606EA85152C43D4
:1023600084808283CD88A0F84050038470BD000033
:10237000002C0140003401400A460021818B4FF2BD
:10238000FF7319404FF6FF7303EA02231943818359
:102390007047818670470187704781877047A0F832
:1023A0004010704781847047002202881D4B98427C
:1023B0000ED01D4B98420BD0B0F1804F08D01B4B74
:1023C000984205D01A4B984202D01A4B984204D139
:1023D0004FF68F731A404B881A43174B984207D019
:1023E000164B984204D04FF6FF431A40CB881A434D
:1023F00002808B8883850B8803850A4B98420BD01B
:10240000094B984208D00E4B984205D00D4B98428C
:1024100002D00D4B984201D10B7A038601238382AF
:1024200070470000002C01400034014000040040CF
:1024300000080040000C0040001000400014004064
:102440000040014000440140004801407FB504467F
:102450000D4601210220FFF753F941F28830ADF813
:10246000080041F61F40ADF804000020ADF80A0056
:10247000ADF8060001A90C48FFF796FF01224121A3
:102480000948FFF715FE1D208DF8000000208DF88B
:10249000010003208DF8020001208DF8030068463A
:1024A000FFF7E4F87FBD00000004004070B58CB079
:1024B00006460C46154601210846FFF711F930463D
:1024C000FEF704FD01940295102003900020049073
:1024D00005908020069000200790089009904FF406
:1024E00080500A9000200B9001A93046FEF798FD1D
:1024F0000CB070BD70B504460D4600212046FEF7B5
:10250000D9FC29462046FEF7A9FD01212046FEF709
:10251000D1FC70BD10B540F225511D4800F042F9C4
:1025200010B31B4800F0FAF9C4B21A48008800F44E
:102530000040C8B91748008800F4804060B10A2CF8
:1025400003D000201349088020E01248008840F49E
:1025500000401049088019E00D2C06D10D48008874
:1025600040F480400B49088010E00A480088C0F31E
:102570000D0009490C5407480088401C0549088093
:1025800008460088C72801DD0020088010BD000033
:1025900000380140B00000204C01002010B540F28E
:1025A0002551134800F0FEF808B3114800F0B6F9C1
:1025B000C4B210480088C82813DA00214FF08040C8
:1025C000FFF7F0FE0B48008810B90120FFF72AFB47
:1025D000084801880088401C064A10800648445478
:1025E00005E00448008840F400400249088010BD1E
:1025F00000440040C2000020E002002010B586B078
:10260000044601210420FFF79BF801214804FFF74D
:1026100077F82D4800F078F80420ADF8100003207A
:102620008DF8120018208DF8130004A92748FEF732
:102630000FFE0820ADF8100004208DF8130004A947
:102640002248FEF705FE00940020ADF80400ADF826
:102650000600ADF80800ADF80C000C20ADF80A003B
:102660006946194800F0EEF801228021164800F072
:1026700041F8174A1449091D1648FFF717FF0121B1
:10268000114800F02BF8012240F225510E4800F0CD
:10269000B3F826208DF8140002208DF815000320D1
:1026A0008DF8160001208DF8170005A8FEF7DEFF53
:1026B00041F61F416320FFF78BFA0020064908808E
:1026C000FFF7B0FA06B010BD00440040000801401A
:1026D0001802002080000240C200002021B182893F
:1026E00042F40052828104E082894DF6FF731A4061
:1026F000828170471AB1838A0B43838202E0838A06
:102700008B4383827047000010B504462048844202
:1027100009D101218803FFF723F800214FF48040FD
:10272000FFF71EF832E01B48844209D1012148041A
:10273000FEF7F6FF00214FF40030FEF7F1FF25E031
:102740001548844209D101218804FEF7E9FF0021E0
:102750004FF48020FEF7E4FF18E01048844209D1CE
:102760000121C804FEF7DCFF00214FF40020FEF732
:10277000D7FF0BE00A48844208D101210805FEF783
:10278000CFFF00214FF48010FEF7CAFF10BD0000FC
:10279000003801400044004000480040004C004028
:1027A0000050004070B502460024002300250020A0
:1027B00040F66A16B14200D100BFC1F3421501F0E4
:1027C0001F03012606FA03F3012D02D19689334037
:1027D00006E0022D02D1168A334001E0968A33408A
:1027E0000C12012606FA04F41688344013B10CB119
:1027F000012000E0002070BDF0B503460024002653
:102800000025002040F66A17B94200D100BF1846E3
:10281000C1F3421401F01F06012707FA06F5012C47
:1028200001D10C3004E0022C01D1103000E0143052
:102830001AB107682F43076002E00768AF430760DB
:10284000F0BD00002DE9F04786B005460E46002495
:10285000A24600BFA1460027B08900B100BF2F46A5
:102860002C8A4CF6FF700440F08804432C82AC891B
:102870004EF6F3100440B08831890843718908434B
:102880000443AC81AC8A4FF6FF400440B089044356
:10289000AC8201A8FEF774FF1F48874202D1DDF821
:1028A00010A001E0DDF80CA0A88900F4004040B1C0
:1028B0000AEBCA0000EB0A1031684900B0FBF1F8DE
:1028C00007E00AEBCA0000EB0A1031688900B0FB90
:1028D000F1F86420B8FBF0F004012009642101FB49
:1028E0001089A88900F4004040B1322000EBC900F3
:1028F000B0FBF1F000F00700044308E0322000EBE9
:1029000009106421B0FBF1F000F00F0004432C81AA
:1029100006B0BDE8F0870000003801400146888815
:10292000C0F30800704700001FB501211120FEF719
:1029300007FF0120ADF80C0010208DF80F000320D8
:102940008DF80E0003A91748FEF782FC0220ADF8AF
:102950000C0028208DF80F0003A91248FEF778FC20
:1029600001210220FEF754FC0220019000208DF886
:10297000080008208DF8090001208DF80A0001A840
:10298000FEF7FCFB07208DF8000002208DF8010007
:102990008DF8020001208DF803006846FEF766FE00
:1029A0001FBD00000010014070B501210A48FEF76C
:1029B000E5FC142000F08AFD01210748FEF7DCFC4D
:1029C000064907480068FDF7CDFC0546FDF79AFE6D
:1029D0000446204670BD0000001001400000204168
:1029E000B400002000BFFEE70FB4054B10B503A9EB
:1029F000044A029800F01AF910BC5DF814FB0000BC
:102A000031390008AC0000200FB47CB50C0009ADD2
:102A100001D0611E00E00021CDE90001064B6A46AD
:102A20002946089800F002F9002C02D0009A0021F3
:102A300011707CBC5DF814FB333300080FB4084BF5
:102A400010B504A902AA039800F0F0F8044602A900
:102A5000002000F079FC204610BC5DF814FB00005B
:102A60004933000837B514460846064B6A462146E6
:102A700000F0DCF804466946002000F065FC2046C2
:102A80003EBD00004933000802E008C8121F08C11B
:102A9000002AFAD170477047002001E001C1121FDF
:102AA000002AFBD1704700002DE9FF5F82B00021B2
:102AB000DDE90430020DDDF840B0034318D044F6E0
:102AC0001050A2F2FF3242431514119801281FD072
:102AD000A5EB0B00401C5FEA000A4FF000064E4FCA
:102AE000DFF83891B046504615D5CAF1000413E01E
:102AF000119801244AA3012801D16FEA0B01029821
:102B0000119AC0E90031C0E9024206B0BDE8F09F69
:102B1000CBF10000DFE704460021404A491842EBB0
:102B20000450CDE9001012E0E00707D032463B46E2
:102B300040464946FDF7EFFC8046894632463B4613
:102B400010461946FDF7E7FC06460F466410002CB8
:102B5000EAD1DDE90401DDE90023BAF1000F06DA6C
:102B6000FDF7D9FC42464B46FDF7D5FC05E0FDF7E5
:102B700044FD42464B46FDF740FD04460E4600220A
:102B8000284BFDF7B9FF03D84FF0FF30014607E0AF
:102B90000022254B20463146FDF716FCFDF794FF39
:102BA000102409E0002C0ADB0A220023FDF754FE62
:102BB000039B30321A55641E50EA0102F2D1641CA4
:102BC000039AC4F111031444119A012A03D001227B
:102BD00008430DD10AE0084304D000204FF0110B48
:102BE000119072E7A3EB0B056D1E0DE05B4504DD54
:102BF0004FF0000205F1010504E003DA4FF0000296
:102C0000A5F10105002AECD002981199C0E9023122
:102C1000C0E9004579E70000000014400000F03FE3
:102C2000300000000000F0430000E03F2DE9FF4FBE
:102C300095B09A46884606460025EEE1252877D1CC
:102C400000242746F94A0121039400E0044316F8C2
:102C5000013F203B01FA03F01042F7D130782A28D7
:102C600011D06FF02F033078A0F13002092A16D866
:102C7000039A44F0020402EB820203EB4202104486
:102C8000761C0390EFE758F8042B0392002A03DA2E
:102C9000504244F40054039044F00204761C30780F
:102CA0002E2816D116F8010F44F004042A280DD05E
:102CB0006FF02F023078A0F13003092B09D807EB11
:102CC000870302EB4303C718761CF3E758F8047B2D
:102CD000761C30786C280FD006DC4C2817D068287A
:102CE0000DD06A2814D104E0742810D07A280FD1AE
:102CF0000DE044F400140AE044F4801401E044F4CC
:102D000040147278824202D104F58014761C761C3D
:102D1000307866280BD013DC582877D009DC0028DF
:102D200075D04528F6D04628F4D047281AD193E12B
:102D300018E0632835D0642879D0652812D18BE15A
:102D4000702873D008DC6728F1D069286FD06E280E
:102D50000DD06F2806D1ACE073282CD0752874D024
:102D6000782853D05246179990476D1C54E1C4F30C
:102D70000250022809D003280DD0D8F800100428EA
:102D80000DD00D6008F1040846E1D8F80010EA17EC
:102D9000C1E90052F6E7D8F800100D80F2E70D7097
:102DA000F0E718F8041B8DF8001000208DF80100E2
:102DB000EB46012003E058F804BB4FF0FF306107F9
:102DC0004FF0000102D40DE009F101018946B9423A
:102DD0000FDA8145F8DB1BF809100029F4D108E06F
:102DE00009F1010189468142FADB1BF8091000292B
:102DF000F6D103985346A0EB090721463846179AA7
:102E000000F080FA284400EB090507E044E008E1FF
:102E10000DE01BF8010B524617999047B9F10109D3
:102E2000F7D2534621463846179AF2E039E00A2194
:102E3000C4F302524FF0000B0091022A06D058F85A
:102E4000040BC117032A09D00AE023E008F10700A8
:102E500020F00702F2E80201904605E000B2C11737
:102E6000042A01D140B2C117002906DA0A4600211E
:102E7000404261EB02012D2202E0220504D52B2203
:102E80008DF80420012203E0E20701D02022F7E7B9
:102E9000914657E00A2100E010214FF0000B00910D
:102EA0000BE010214FF0000B44F0040408270091C0
:102EB00003E008204FF0000B0090C4F30252022AF6
:102EC00005D058F8040B0021032A08D008E008F1C7
:102ED000070020F00702F2E80201904603E080B20A
:102EE000042A00D1C0B24FF0000922072AD5327857
:102EF000702A07D0DDF800C08CF0100C5CEA0B0CD7
:102F000005D00EE040228DF80420012208E050EAAE
:102F1000010306D030238DF804308DF805200222FD
:102F20009146009B83F0080353EA0B030AD150EA51
:102F3000010201D1620705D530228DF804204FF03F
:102F400001097F1E3278582A04D039A20C920CAAAB
:102F500002920BE03BA2F9E75B46009AFDF77CFC8E
:102F60000C9B9B5C029A521E0292137050EA010263
:102F7000F2D1029804A9081A00F1200B600702D5CB
:102F800024F4803400E001275F4502DDA7EB0B004D
:102F900000E0002000EB0B01009003984944401A28
:102FA0000390E00306D453462146179A039800F095
:102FB000A9F90544002706E001A85246C05D17990B
:102FC00090476D1C7F1C4F45F6DBE0030CD5534644
:102FD0002146179A039800F095F9054404E0302043
:102FE0005246179990476D1C0099481E0090002981
:102FF000F5DC08E00298029952460078491C0291DB
:10300000179990476D1CBBF10001ABF1010BF1DC8E
:103010005BE100F065F90544761C307800287FF408
:103020000DAE19B02846BDE8F08F00000928010058
:10303000303132333435363738396162636465662E
:1030400000000000303132333435363738394142F0
:103050004344454600000000600700D4062708F1FD
:10306000070020F00700F0E80223804603F0004C40
:103070005FEA0C0001D097A009E0200501D596A0D9
:1030800005E0E00701D095A001E0AFF24C001390FD
:10309000307823F0004365280CD006DC452809D0A1
:1030A00046281DD047287FD13BE0662818D06728E6
:1030B0007AD136E00021112F01DB112000E0781CCD
:1030C000CDE9000104A90CA8FFF7EEFCDDE90D0134
:1030D0000C9A4FF0000B07F10109109200914EE09D
:1030E0004FF000400097CDE9011004A90CA8FFF7AC
:1030F000DBFCDDE90D020C9B0F994FF0000B9146B4
:103100001093009211B9791C00EB0109B7EB09008B
:1031100003D4C0F1FF3B07F10109A9EB07000190BF
:1031200042E0012F00DA01270021112F01DD1120DB
:1031300000E03846CDE9000104A90CA8FFF7B4FC73
:10314000DDE90D010C9A00914FF0000BB946109289
:1031500021070FD4009A4A4503DA914601E0A9F10C
:103160000109B9F1010F05DD109AA9F10101515CC6
:103170003029F4D0B84202DA10F1040F03DA012149
:10318000CDE9011010E0002803DC8344A9EB000125
:1031900002E0411C494500DD8946A0EB0B00401CC4
:1031A00001904FF000400290200705D40198484557
:1031B00002DB4FF0FF30019000208DF84B000298A9
:1031C0000DF14B07B0F1004F25D002200C902B20C1
:1031D0000D90029800280CDA404202902D200D90AC
:1031E00007E00A210298FDF721FB3031029007F831
:1031F000011D0C99481E0C900029F2DC0298002851
:10320000EFD1791E0D980870307800F0200040F062
:10321000450007F8020D11A8C01BC01D02901398AD
:10322000007800B1012000EB0901019801EBE07189
:10323000029801440398401A401E0390E00306D40C
:1032400053462146179A039800F05CF805441398FA
:10325000007818B15246179990476D1CE00323D5AA
:1032600053462146179A039800F04CF805441BE09A
:10327000BBF1000F07DB0098584504DD1098179943
:1032800010F80B0001E01799302052469047019842
:103290000BF1010B401E05F10105019004D12E2018
:1032A0005246179990476D1CB9F10001A9F1010927
:1032B000DEDC05E017F8010B5246179990476D1CAC
:1032C0000299481E02900029F4DC53462146179AC1
:1032D00003989EE62D0000002B0000002000000057
:1032E0002DE9F041044600251E461746880404D403
:1032F00005E039462020B0476D1C641EF9D52846EC
:10330000BDE8F0812DE9F041044600251E469046B7
:10331000C80301D5302700E02027880404D505E044
:1033200041463846B0476D1C641EF9D52846BDE8B5
:10333000F0814A68002A06D00A68531C0B6010709E
:103340004868401E486070470A68531C0B60107044
:10335000704700000FB42DE9F0419CB00746DDF83E
:103360009C80402109A8FCF71AFF06A800F0EEFA9D
:10337000002019901A901B90DDE92301CDE9190175
:103380000A46014606A81B9B00F0D3F8012009AAB3
:10339000239902EB0111249A41F8220042E006A988
:1033A00003A800F0B9F825990398884209D1269915
:1033B0000498884205D105981CB0BDE8F0015DF87D
:1033C00014FB00242BE01B4951F8241003984518E6
:1033D000194951F824100498461809AB3A46314669
:1033E000284600F0C6FAC8B1012009A901EB051171
:1033F00041F82600DDE9030101EB800008EB05112F
:1034000041F82600CDE900560598401C0346324697
:103410002946029006A800F08CF800BF641C042C1A
:10342000D1DB00BF06A800F09BFA0028B7D04FF010
:10343000FF30C1E7600000207000002010B56FF081
:103440000400FEF769FB0A4800680A49B0FBF1F086
:10345000094908700846007800EB4001C1EBC01034
:103460004FF6FF7101EAC0000449088010BD00005A
:103470009400002000127A00A8000020AA0000207A
:103480000146114A12884A434FF0E0235A61002254
:103490009A611A46126942F001021A6100BF4FF0A8
:1034A000E022106900F001021AB100F48032002A13
:1034B000F5D04FF0E022126922F001024FF0E02334
:1034C0001A6100229A617047AA0000200146114A41
:1034D00012784A434FF0E0235A6100229A611A465B
:1034E000126942F001021A6100BF4FF0E022106938
:1034F00000F001021AB100F48032002AF5D04FF03A
:10350000E022126922F001024FF0E0231A6100224A
:103510009A617047A800002010B54B685A1C4A6099
:1035200003EB43020B6803EB82041CCC80E81C0015
:1035300010BD1FB58268511C816002EB4201026818
:1035400002EB810101AA1CCA1CC11FBD2DE9F04F6D
:1035500097B004460D46BC480460BC4805602A4646
:103560002146BBA0FFF740FABE480068BE49096883
:10357000884206DBBD480460BD48056017B0BDE861
:10358000F08FBC4800EB041050F82500801CB949AE
:1035900001EB041141F825000020089088E0B649AD
:1035A000089851F820000619B449089851F82000ED
:1035B00047193946304600F0F5F9002874D0AD4877
:1035C00000EB061050F8270000286DD1AC4800EB46
:1035D000061050F82700002866D1AA480660AA48BD
:1035E000076000F065FD00F05FF907900798401C48
:1035F00000284DD100F058F9002006900120A04984
:1036000001EB061141F8270000200CE09F4951F81A
:103610002010B14206D19E4951F82010B94201D183
:1036200001210691401C8F4909688842EEDB06980B
:10363000012800D139E04FF480719648FDF79CFED7
:10364000C820FFF71DFF4FF480719248FDF796FEEA
:1036500005960497DDE9047607EB860005908EA2B7
:103660000A2101A8059BFFF7CFF901A800F0D2FDC0
:1036700086487C49096840F821608548794909688D
:1036800040F8217077480068401C764908600AE0DD
:10369000784800EB061050F82700401C754901EBF4
:1036A000061141F8270000BF00BF0898401C089091
:1036B00008980428FFF673AF601E1690A846601C99
:1036C0001590A946A246681E1490A346681C139044
:1036D00073481290119010900F904146169800F088
:1036E00061F970B16649169801EB001050F8280096
:1036F000012806D05F49169801EB001050F8280009
:1037000012904946159800F04DF970B15C49159832
:1037100001EB001050F82900012806D055491598F2
:1037200001EB001050F8290011905046149900F058
:1037300039F970B1524800EB0A11149851F8200081
:10374000012806D04B4800EB0A11149851F82000CC
:1037500010905846139900F025F970B1484800EBD5
:103760000B11139851F82000012806D0414800EBB6
:103770000B11139851F820000F9012980B900F988E
:103780000C9011980D9010980E9046480A900520C4
:10379000099000200BE00BA951F820200A998A42D9
:1037A00004DA09900BA951F820100A91401C042852
:1037B000F1DB2C4800682C490968884204DB2B485F
:1037C00004602B480560D9E6099860B92D49169820
:1037D00008602D48C0F8008000F0BCFB41461698F8
:1037E000FFF7B4FE2EE0099801280CD12548C0F857
:1037F00000B025491398086000F0ACFB58461399B7
:10380000FFF7A4FE1EE0099802280CD11D49159867
:1038100008601D48C0F8009000F09CFB49461598D0
:10382000FFF794FE0EE0099803280BD11548C0F865
:1038300000A015491498086000F08CFB50461499BC
:10384000FFF784FE00BF99E600000020040000207E
:1038500063757272656E7420783D25642C793D2500
:10386000640A00005000002054000020580000208E
:103870005C000020CC0000206000002070000020D0
:103880000C010020080000200C000020180000207F
:10389000340000200008014042202530326400003E
:1038A00040420F0000C2EB0B70B50024002636E04A
:1038B000FFF77AF80546962D18DC002D16DB4FF43D
:1038C000FA70FDF789FE04E00A212C20FDF766FE60
:1038D0000A3C002C02DDB4F57A6FF5DB4FF47A7008
:1038E000FDF77AFE4FF0FF36304670BD0A213220D8
:1038F000FDF79EFE0A3440F6D86084420FDB4FF499
:10390000FA70FDF769FE04E00A212C20FDF746FE5F
:103910000A3C002C02DDB4F57A6FF5DB00E0C7E766
:1039200000BF4FF47A70FDF757FE01263046DCE702
:1039300000BF054A128802F04002002AF9D0C2B244
:10394000014B1B1D1A8070470038014010B504461A
:10395000C02000F09DFA20600020A060606010BDD3
:103960000146D1E90102904201D1012070470020B7
:10397000FCE710B50446002C12DB042C10DA0029F9
:103980000EDB04290CDA02EB041050F821000128A8
:1039900006D003EB041050F8210008B9012010BD37
:1039A0000020FCE70246002A07DB042A05DA00298A
:1039B00003DB042901DA012070470020FCE7000046
:1039C000BAB001210420FDF7BBFE4FF48070ADF8C2
:1039D000E40010208DF8E70003208DF8E60039A9F7
:1039E000E948FDF735FC4FF48071E748FDF7C6FC68
:1039F0000025FFF723FD002141F61F40FEF734F9B3
:103A00004FF4165000F026FC4FF41650FEF7F6FD6A
:103A10004FF4FA70FDF7E0FD8F2142F20F70FEF7D0
:103A2000B3FAFEF781FF41F61F4141F28830FEF7FD
:103A30000DFDA8E1D548008800F400400028F8D02A
:103A4000D24805780020D2494855D2A0FEF7CCFFD5
:103A50002946D5A0FEF7C8FF022D1DDBD548FDF78E
:103A6000FBFE0322D4A1CA48FCF7ABFBA8B9642132
:103A70005020FDF7DDFD6420FFF702FD6420FDF717
:103A8000ABFDFEF791FF04462246CCA131A8FEF71C
:103A9000D5FF31A800F0BEFB72E10322CBA1BC48E8
:103AA000FCF78FFB68B9CAA000F0B4FB642150207A
:103AB000FDF774FD6420FFF7E3FC6420FDF78CFD47
:103AC0005EE10322C5A1B248FCF77BFB68B9C4A044
:103AD00000F0A0FB64215020FDF70DFD6420FFF7EE
:103AE000CFFC6420FDF778FD4AE10322BFA1A8487E
:103AF000FCF767FB68B9BEA000F08CFB6421502086
:103B0000FDF7A4FC6420FFF7BBFC6420FDF764FD17
:103B100036E10322B9A19E48FCF753FB68B9B8A06F
:103B200000F078FB64215020FDF72AFC6420FFF7A9
:103B3000A7FC6420FDF750FD22E10322B2A19448C6
:103B4000FCF73FFB68B9AAA000F064FB6421502099
:103B5000FDF72AFC6420FFF793FC6420FDF73CFD91
:103B60000EE10122A9A18A48FCF72BFB30B9A7A0DE
:103B700000F050FB6420FFF783FC01E10222A4A1C6
:103B80008348FCF71EFB002851D110228049891C74
:103B900035A8FCF7EBFA9DF8D400C11700EB917142
:103BA0008E109DF8D400C11700EB91718910A0EB25
:103BB00081079848066098480760012423E035A8EB
:103BC000005D112800D120E035A9085DC11700EB88
:103BD00091718910914A116035A9085DC11700EBF8
:103BE00091718910A0EB81018D4A116000F060FA9B
:103BF00000F04AFA894800688649086088480068E9
:103C000085490860641C102CD9DB00BF834800681C
:103C100080490860824800687F4908600020814927
:103C2000086000F045FA80A000F0F4FAA8E0022253
:103C300081A15748FCF7C5FA00287DD136A837ABDB
:103C400038AA7EA100905248FCF7CAFA032878D11E
:103C50007D49369808603898C11700EB91718E1035
:103C60003898C11700EB91718910A0EB8107394694
:103C70003046FFF76BFC00200CE0002107E04FF01E
:103C8000FF3226AB03EB001343F82120491C042923
:103C9000F5DB401C0428F0DB6C48006824906C487D
:103CA000006825903798C11700EB91718910229117
:103CB0003798C11700EB91718910A0EB8101239116
:103CC00026A80190239800906248229BDDE92412E7
:103CD000FFF740FB0446601C18B95FA0FEF784FEA6
:103CE0000BE002A826A9CDE90010DDE92223DDE9D9
:103CF000240100F045F9804600BF002049490860D2
:103D000000F0D6F957A000F085FA00205A49086063
:103D100000BF10E000210BE000224E4B03EB00132C
:103D200043F82120554B03EB001343F82120491C95
:103D30000429F1DB401C01E004E002E00428E9DB97
:103D400000BF1DE0032230A11148FCF73AFA88B108
:103D500003222AA10E48FCF734FA58B1032248A1E5
:103D60000B48FCF72EFA28B1032246A10848FCF7BD
:103D700028FA28B944A000F04DFA6420FDF72CFC85
:103D800000200249088055E600080140C2000020DA
:103D9000E00200205553415254325F52585F425561
:103DA000463A2025730A00007265636C656E3A20FE
:103DB00025640A000000A0424F4E410064697374FC
:103DC000616E63653A202564206D6D004F4E4200A0
:103DD000676F206261636B21000000004F4E44005A
:103DE000676F207269676874210000004F4E4300BE
:103DF000676F206C65667421000000004F4E45001F
:103E00006C656674210000004F4E460046000000BD
:103E100054330000000000200400002008000020AF
:103E20000C0000201000002066696E697368207223
:103E30006F7574696E670000543400005434202597
:103E400064202564202564005400002058000020D0
:103E50005C0000200C0100206E6F20726573756C91
:103E6000740A000066696E69736820736561726325
:103E700068696E670000000050000020CC00002040
:103E8000535450005041540053746F70210000008F
:103E9000F0B50B30154D20F007010024144A0FE057
:103EA00003688B420BD38B4205D95E1A43184768CF
:103EB000C3E9006700E04368136002C004E0021D2C
:103EC00010680028ECD12046002802D1286808B1EB
:103ED0000020F0BD064A07481060074A121A22F077
:103EE0000702C0E9002401202860D7E7C8000020AD
:103EF000C4000020AC030020A805002070B50024F9
:103F000020E0FEF751FD0546962D11DC002D0FDB5C
:103F10004FF4FA70FDF760FB04E00A212C20FDF756
:103F20003DFB0A3C002C02DDB4F57A6FF5DB0AE0BC
:103F30000A213220FDF77CFB0A3440F6D860844227
:103F400000DB00E0DDE700BF4FF47A70FDF744FBD3
:103F500070BD000010B500F0ABF8FFF7CFFF0448CC
:103F6000006804490860044800680449086010BDFE
:103F700008000020000000200C00002004000020A9
:103F80002DE9FF4383B0DDE90E950026059FDDF89E
:103F9000188017E03146761C05EBC101CDE90178A8
:103FA000C1E9007809EB071151F828000146C21752
:103FB00000EB92729710C21700EB92729210A0EB76
:103FC000820800BF0398B842E4D104984045E1D18B
:103FD0003046761C05EBC000DDE9031206C0741EF6
:103FE00031E0701EA0421AD155F834001A49086019
:103FF00055F834001949086005EBC40040681849B9
:10400000086005EBC40040681649086005EBC40071
:1040100055F83410426814A0FEF7E6FC12E055F89B
:1040200034000E49086005EBC40040680D49086083
:1040300005EBC40055F8341042680EA0FEF7D4FC1E
:10404000FFF788FF641E002CCBDA0EA0FEF7CCFC35
:10405000304607B0BDE8F0830000002008000020D3
:10406000040000200C0000202825642C2025642951
:1040700000000000202D3E202825642C20256429E6
:10408000000000000A00000010B5002409E00A2129
:104090003220FDF7CDFA0A3440F6B830844200DB16
:1040A00000E0F4E700BF4FF47A70FDF795FA10BD19
:1040B00010B54348006843490968401A0AD142488C
:1040C000006842490968401A012803D1002040498C
:1040D000086031E03A4800683A490968401A012806
:1040E00009D13948006839490968401A03D10120CB
:1040F0003749086020E03248006832490968401AB0
:104100000AD13148006831490968401A401C18B981
:1041100002202F4908600FE02948006829490968F2
:10412000401A401C40B92848006828490968401ACC
:1041300002D10320264908602548006825490968FE
:10414000884218DD2248006822490968441A012C77
:1041500004D0022C05D0032C0BD107E000F04BF863
:1041600007E000F048F800F046F802E000F034F80C
:1041700000BF00BF1EE01648006816490968884263
:1041800018DA1448006812490968441A012C04D04E
:10419000022C05D0032C0BD107E000F01DF807E03E
:1041A00000F029F800F027F802E000F024F800BF42
:1041B00000BF00BF064800680649086010BD000047
:1041C00008000020000000200C0000200400002057
:1041D000100000201400002010B54FF4FA70FDF715
:1041E000FBF940F28A213920FDF79EF94FF4FA706D
:1041F000FDF7F2F910BD10B54FF4FA70FDF7ECF9C8
:1042000040F28A213920FDF7A9F94FF4FA70FDF741
:10421000E3F910BD0FB438B505A800900B48009A1B
:104220000499FEF71FFC0020009000BF0848FCF72F
:10423000F3FE0028FAD10548FBF7BCFFC4B22146C3
:104240000348FEF757F938BC5DF814FB180200204C
:104250008000024010B586B00446012144F20400FB
:10426000FDF76EFA4FF40070ADF8140003208DF8DE
:10427000160018208DF8170005A91C48FCF7E8FF68
:104280004FF48060ADF8140004208DF8170005A9E4
:104290001648FCF7DDFF25208DF8000003208DF87F
:1042A00001008DF8020001208DF803006846FDF73B
:1042B000DDF901940020ADF80800ADF80A00ADF872
:1042C0000C00ADF810000C20ADF80E0001A9084854
:1042D000FEF7B8FA012240F225510548FEF78CFAA4
:1042E00001210348FEF7FAF906B010BD00080140AD
:1042F00000380140DDDDDDDDDCBBBBDDDDDDDDDD2E
:10430000DDDDDDDD9888888888888888777777770D
:1043100077888888855555566666666666666666D9
:104320006668888883333332222222222222222284
:104330002228888D5443000800000020CC00000093
:10434000882A000820440008CC000020DC08000077
:10435000982A0008FFFFFFFFFFFFFFFFFFFFFFFF9F
:10436000FFFFFFFF0000000000000000FFFFFFFF55
:10437000FFFFFFFFFFFFFFFFFFFFFFFFFFFFFFFF4D
:10438000FFFFFFFFFFFFFFFFFFFFFFFFFFFFFFFF3D
:10439000FFFFFFFFFFFFFFFFFFFFFFFFFFFFFFFF2D
:1043A000FFFFFFFF0000000003000000FFFFFFFF12
:1043B000FFFFFFFFFFFFFFFF010000000000000004
:1043C000000000000000000000000000FFFFFFFFF1
:1043D00001000000000000000102030401020304C8
:1043E000060708090204060800A24A0400000000AB
:1043F0000000000001020304060708090000000095
:1044000000000000000000000000000000000000AC
:10441000000000000000000000000000000000009C
:0400000508000149A5
:00000001FF
